:020000040800F2
:1000000028460020F502000821060008AD0400087B
:100010001D0600085F040008C90800080000000071
:100020000000000000000000000000003502000891
:10003000630400080000000091020008B7060008F1
:100040000F0300080F0300080F0300080F03000848
:100050000F0300080F0300080F0300080F03000838
:100060000F0300080F0300080F0300080F03000828
:100070000F0300080F0300080F0300080F03000818
:100080000F0300080F0300080F0300080000000022
:100090000000000000000000000000000F03000846
:1000A0000F0300080F0300080F0300080F030008E8
:1000B0000F0300080F0300080F0300080F030008D8
:1000C0000F0300080F0300080F0300080F030008C8
:1000D0000F0300080F0300080F03000800000000D2
:1000E0000F0300080F0300080F03000800000000C2
:1000F0000000000000000000000000000F030008E6
:10010000000000000F0300080F0300080F030008A1
:1001100000000000000000000000000000000000DF
:100120000F0300080F0300080F0300080F03000867
:100130000F030008000000000000000000000000A5
:100140000000000000000000000000000F03000895
:100150000F0300080F0300080F0300080F03000837
:100160000F0300080F03000800000000000000005B
:10017000000000000000000000000000000000007F
:10018000000000000F030008000000000000000055
:100190000F03000800F002F800F03CF80AA090E815
:1001A000000C82448344AAF10107DA4501D100F032
:1001B00031F8AFF2090EBAE80F0013F0010F18BFC3
:1001C000FB1A43F00103184714190000341900000A
:1001D000103A24BF78C878C1FAD8520724BF30C873
:1001E00030C144BF04680C60704700000023002445
:1001F00000250026103A28BF78C1FBD8520728BF37
:1002000030C148BF0B6070471FB501F0F9FB1FBD3F
:1002100010B510BD00F0EAF81146FFF7F5FF00F049
:1002200071FB00F008F903B4FFF7F2FF03BC00F024
:100230000FF900002C4B19680868B0E8F04F80F304
:100240000988BFF36F8F4FF0000080F3118870476B
:100250000000000008480068006880F308884FF03C
:10026000000080F3148862B661B6BFF34F8FBFF30E
:100270006F8F00DF00BF00BF08ED00E0DFF80C006B
:10028000016841F470010160704700BF88ED00E033
:10029000EFF30980BFF36F8F134B1A681EF0100F36
:1002A00008BF20ED108A20E9F04F106009B44FF02C
:1002B000500080F31188BFF34F8FBFF36F8F01F0B1
:1002C000A7F84FF0000080F3118809BC196808688E
:1002D000B0E8F04F1EF0100F08BFB0EC108A80F3AA
:1002E0000988BFF36F8F704718000020EFF3058077
:1002F000704700000948804709480047FEE7FEE7CD
:10030000FEE7FEE7FEE7FEE7FEE7FEE7FEE7FEE7C5
:1003100004480549054A064B7047000025080008B7
:10032000950100082840002028460020284200208F
:100330002842002010B5203AC0F00B80B1E81850D8
:10034000203AA0E81850B1E81850A0E81850BFF4BF
:10035000F5AF5FEA027C24BFB1E81850A0E818505E
:1003600044BF18C918C0BDE810405FEA827C24BFB2
:1003700051F8043B40F8043B08BF7047D20728BF40
:1003800031F8023B48BF11F8012B28BF20F8023B8F
:1003900048BF00F8012B70474FF0000200B513462C
:1003A00094469646203922BFA0E80C50A0E80C5095
:1003B000B1F12001BFF4F7AF090728BFA0E80C5046
:1003C00048BF0CC05DF804EB890028BF40F8042B3F
:1003D00008BF704748BF20F8022B11F0804F18BFAC
:1003E00000F8012B7047704770477047754600F062
:1003F0002BF8AE4605006946534620F007008546B7
:1004000018B020B5FFF784FFBDE820404FF000068C
:100410004FF000074FF000084FF0000B21F00701EC
:10042000AC46ACE8C009ACE8C009ACE8C009ACE82F
:10043000C0098D46704710B50446AFF300802046D2
:10044000BDE81040FFF7EFBE00487047C83F0020EE
:1004500001491820ABBEFEE726000200704700BF2E
:10046000FEE7704700B587B001200E4909680143D7
:100470000C4A1160114609680140009100BF00BF9D
:10048000182101A8FFF788FF3F200190012002906A
:10049000002004900390059001A9034800F008F89B
:1004A00007B000BD303802400000024000BFFEE748
:1004B000F0B502460B4600240021186890FAA0F01F
:1004C000B0FA80F48AE00125A540186800EA050129
:1004D00000297DD05868012802D0586802281CD114
:1004E0009868956891FAA1F6B6FA86F67700032621
:1004F000BE40B54391FAA1F6B6FA86F6760000FA48
:1005000006F63543956000BFD86855688D4301FBFA
:1005100000F63543556000BF00BF1869D56891FAF1
:10052000A1F6B6FA86F677000326BE40B54391FAE7
:10053000A1F6B6FA86F6760000FA06F63543D560DF
:1005400000BF5868022831D191FAA1F0B0FA80F0CA
:10055000082814D25869156A91FAA1F6B6FA86F6F7
:10056000B7000F26BE40B54391FAA1F6B6FA86F65B
:10057000B60000FA06F63543156200BF16E058696A
:10058000556A0E0A96FAA6F6B6FA86F6B7000F2650
:10059000BE40B5430E0A96FAA6F6B6FA86F6B6003F
:1005A00000FA06F63543556200BF00BF586815686B
:1005B00091FAA1F6B6FA86F677000326BE40B54357
:1005C00091FAA1F6B6FA86F6760000FA06F600E091
:1005D00003E03543156000BF00BF641C1868E040AD
:1005E00000287FF470AFF0BD0A048261704781611A
:1005F00070474FF47A71B0FBF1F2521E4FF0E023D6
:100600005A6100229A6105221A6100BF70470000FA
:1006100001490860704700001400002000BFFEE799
:1006200000BFFEE7F0B503460C4603F00701C1F139
:100630000700042801D9042001E0C1F107000646A3
:10064000081D072801D2002000E0C81E0546012031
:10065000B040401E2040A8400127AF407F1E1740F9
:100660003843F0BD00BF012000F0EBF9FBE70121AA
:10067000002000F057FE00BF012000F0E2F9FBE788
:100680000221002000F04EFE00BF012000F0D9F949
:10069000FBE70321002000F045FE00BF012000F031
:1006A000D0F9FBE70421002000F03CFE00BF012050
:1006B00000F0C7F9FBE710B501F06CF8012801D094
:1006C00000F0BEFF10BD000070B50220504909685F
:1006D00021F0070101434E4A116000BF00BF00BF77
:1006E0004B48006800F007000228F8D18003494910
:1006F000096821F440410143464A116000BF1020BF
:100700004549096821F0F80141EAC001424A1160F7
:1007100000BF00BF1046006840F0010011460860AD
:1007200000BF00BF00BF3C480068C0F34000002885
:10073000F8D0002010214FF4A8720B0340EA010406
:1007400044EA8214344D2D1D2D68344E35402C431F
:10075000314D2D1D2C602C46246824F440341C435C
:100760002C6000BF00BF281F006840F08070291F68
:10077000086000BF00BF00BF27480068C0F34060AA
:100780000028F8D000BF00BF22484068C0F3803086
:100790000028F8D0002020490831096821F0F00134
:1007A00001431D4A0832116000BF901411460968C8
:1007B00021F4E0510143116000BF00201146096897
:1007C00021F460410143116000BF02201146096815
:1007D00021F003010143116000BF00BF00BF0E48BC
:1007E0000830006800F00C000828F7D10C48FFF72B
:1007F00000FF0B48FFF70CFF002007498C31096808
:1008000021F080710143044A8C32116000BF70BD39
:10081000003C024000700040003802400080BFFFF2
:1008200000BD01050348006840F4700001490860FC
:100830007047000088ED00E010B50446012C06D09A
:10084000022C09D0032C0CD0042C14D10EE0012171
:100850000A48FFF7CCFE0EE002210848FFF7C7FE6A
:1008600009E004210548FFF7C2FE04E0082103481F
:10087000FFF7BDFE00BF00BF10BD0000000002403A
:1008800010B50446012C06D0022C09D0032C0CD044
:10089000042C14D10EE001210A48FFF7A5FE0EE05A
:1008A00002210848FFF7A0FE09E004210548FFF7F0
:1008B0009BFE04E008210348FFF796FE00BF00BF3F
:1008C00010BD00000000024000BFFEE702480068C3
:1008D000C0F30220704700000CED00E010B50028C6
:1008E00004DB0A07130E054A135406E00A07140E28
:1008F000034A00F00F031B1FD45410BD00E400E0B6
:1009000018ED00E0A4B04FF480404149096801436C
:100910003F4A1160114609680140009100BF00BFC5
:100920008003111F09680143121F116011460968F5
:100930000140009100BF00BF03200246354B1968FB
:100940004FF6FF031940344B0B4343EA0221314B6E
:10095000196000BFFFF7BAFF054600220F21FFF71D
:1009600061FE044621466FF00100FFF7B7FFFFF775
:10097000ADFF054600220F21FFF754FE0446214635
:100980004FF0FF30FFF7AAFFFFF79EFEFFF76AFD6B
:100990001C2222491DA8FFF7CDFC00211DA800F054
:1009A00061F81F4908601C221C491C3116A8FFF77A
:1009B000C1FC002116A800F055F81A4908601C2255
:1009C000164938310FA8FFF7B5FC00210FA800F039
:1009D00049F8154908601C221049543108A8FFF74E
:1009E000A9FC002108A800F03DF8104908601C226D
:1009F0000A49703101A8FFF79DFC002101A800F011
:100A000031F80B49086000F028F800BFFEE700004D
:100A1000443802400CED00E00000FA05141A00080A
:100A20000000002004000020080000200C0000202E
:100A30001000002001460020842901D0CA1C104467
:100A4000704770B5044625460DB1294600E00121E6
:100A5000084600F039FC002070BD10B500F072FCB3
:100A6000002010BD7FB504460D46606998B1A069AD
:100A700088B1B4F90800FFF7DDFF0646D4E9051098
:100A8000CDE9006102902B462269D4E9001000F004
:100A900023FE039013E0B4F90800FFF7CBFF0646EE
:100AA00003A8CDE90060238A9AB22B46D4E900104E
:100AB00000F0E0FD012802D0002004B070BD0398D2
:100AC000FBE700002DE9F04105460E461C4807688B
:100AD0001C480068001D00F0F3FA50B9194800687E
:100AE00090F82C1001208840174909688143164866
:100AF0000160681C38B936B112480168091D1348F5
:100B000000F028FB1AE07C190E4800684460BC42E3
:100B100007D20C480168091D0D48006800F000FB71
:100B20000CE008480168091D0A48006800F0F8FA5E
:100B300009480068844201D207480460BDE8F0819A
:100B40002C0000201800002030000020B4030020FA
:100B5000200000201C0000204800002010B50446A2
:100B600000F004FB23480068401C2249086022482A
:100B7000006840B9204804600846006801280DD18B
:100B800000F040F90AE01D48006838B91A480068CA
:100B9000C06AE16A884201D81748046018480068B2
:100BA000401C1749086094F82C1001208840154912
:100BB0000968084313490860E16A01EB8101124AA0
:100BC00002EB8100211D00F0C5FA00F0F9FA0B4894
:100BD000006868B108480068C06AE16A884207D2C4
:100BE0004FF0805009490860BFF34F8FBFF36F8FFC
:100BF00010BD000028000020180000203400002054
:100C00004400002030000020D802002004ED00E065
:100C100010B516E000F0AAFA0C48C068C468201DA0
:100C200000F04EFA0A480068401E09490860094869
:100C30000068401E0749086000F0C2FA204600F034
:100C40000BF8044800680028E4D110BDA003002080
:100C5000280000202400002010B5044694F8550018
:100C600030B9206B00F0CAFA204600F0C7FA1AE04B
:100C700094F85500012803D1204600F0BFFA12E095
:100C800094F85500022801D1012000E0002050B95D
:100C900000BF502080F31188BFF34F8FBFF36F8FD9
:100CA00000BF00BFFEE710BD30B54FF470531748CA
:100CB00000F007042CB1C01D20F00700134C041BEA
:100CC0001B1B0246124C22600024114D6C60D01890
:100CD000083820F007000F4C206000240D4D2D68CF
:100CE0006C600C4D2D682C601146441A4C60094C08
:100CF00024680C60084D4C682C60084D4C682C60D2
:100D00004FF00044064D2C6030BD0000C8030020A9
:100D1000540000205C0000206400002060000020DF
:100D20007000002000BFFFF773FF0648006801282D
:100D3000F9D94FF0805004490860BFF34F8FBFF3DB
:100D40006F8FF0E7D802002004ED00E02DE9FF5F8F
:100D500081460E469246DDE90E7B109CAAF1010009
:100D6000216B01EB800828F0070808F0070008B99C
:100D7000012000E0002050B900BF502080F311880E
:100D8000BFF34F8FBFF36F8F00BF00BFFEE786B189
:100D9000002507E0715D04F134004155705D00B934
:100DA00002E06D1C102DF5D300BF0021432001553A
:100DB00002E0002084F83400072F00D30627E76202
:100DC00067640020A064201D00F0A7F904F118005A
:100DD00000F0A3F92461C7F10700A061646200205C
:100DE000E064206584F8540049464046039A00F0C8
:100DF00051F92060BBF1000F01D0CBF80040BDE8F5
:100E0000FF9F000010B5002407E004EB84010F4AA7
:100E100002EB810000F074F9641C072CF5D30C4838
:100E200000F06EF90B4800F06BF90B4800F068F920
:100E30000A4800F065F90A4800F062F904480949D7
:100E4000086004480849086010BD0000D80200206E
:100E500064030020780300208C030020A0030020FE
:100E6000B40300201C0000202000002010B5014623
:100E7000164800E0006803688B42FBD302464368D3
:100E800013448B4204D143684C68234443600146B9
:100E90000A464B6813440468A34211D10C4C036802
:100EA0002468A34208D04B680468646823444B60FC
:100EB00003681B680B6005E0054B1B680B6001E0D5
:100EC00003680B60884200D0016010BD5400002010
:100ED0005C0000200A490968096809B9012100E09D
:100EE000002121B14FF0FF31064A116006E00449AC
:100EF0000968C968C868034A416811607047000002
:100F00001C000020480000200E480068401C08B962
:100F1000012000E0002050B900BF502080F311886C
:100F2000BFF34F8FBFF36F8F00BF00BFFEE700BF5F
:100F3000502080F31188BFF34F8FBFF36F8F00BF36
:100F400000BFFEE7740000202DE9F04104464FF099
:100F5000000800F055FA4948006808B9FFF7A4FEF8
:100F6000474800682040002870D1D4B1083404F00C
:100F70000700B0B104F00700C0F10800044404F019
:100F8000070008B9012000E0002050B900BF502040
:100F900080F31188BFF34F8FBFF36F8F00BF00BF87
:100FA000FEE7002C52D03748006884424ED8364EB7
:100FB0003046056801E02E462D686868A04202D2DE
:100FC00028680028F7D12D48006885423ED0306857
:100FD00000F10808286830606868001B102819D9DB
:100FE0002F1907F0070008B9012000E0002050B9D0
:100FF00000BF502080F31188BFF34F8FBFF36F8F76
:1010000000BF00BFFEE76868001B78606C60384670
:10101000FFF72CFF1B4968680968081A194908601E
:101020000846006819490968884203D215480068D3
:10103000164908601249686809680843686000201A
:10104000286013480068401C1149086000F056FCF5
:1010500008F0070008B9012000E0002050B900BFE7
:10106000502080F31188BFF34F8FBFF36F8F00BF05
:1010700000BFFEE74046BDE8F08100005C000020B4
:101080007000002060000020540000206400002058
:1010900068000020001F4FF080730360001F21F0E4
:1010A00001030360001F054B036014380260001F3A
:1010B0006FF002030360203870470000090F00083A
:1010C00001460A69D1E901309860D1E9010358600D
:1010D0005068884201D1886850600020086110681B
:1010E000401E106010687047034B0360034B0B6099
:1010F000802313607047000080000020D80000208B
:1011000000F1080141604FF0FF31816000F10801FA
:10111000C1600161002101607047002101617047D9
:1011200010B502460B685C1C0CB9106907E002F1AF
:10113000080000E04068446824689C42FAD944688A
:101140004C604C68A160886041600A611468641C4E
:10115000146010BD42684A6093688B609368596060
:101160009160086103685B1C0360704700BF5020FA
:1011700080F31188BFF34F8FBFF36F8F00BF0E480E
:101180000068401C0C49086008460068012812D11C
:101190000A480068C0B208B9012000E0002050B938
:1011A00000BF502080F31188BFF34F8FBFF36F8FC4
:1011B00000BF00BFFEE770477400002004ED00E0B0
:1011C0000D48006850B900BF502080F31188BFF36C
:1011D0004F8FBFF36F8F00BF00BFFEE70648006868
:1011E000401E054908600846006820B9002080F3C9
:1011F000118800BF00BF70477400002070B506461C
:101200003546002E44D0083D2C46224960680968C6
:10121000084008B1012000E0002050B900BF502074
:1012200080F31188BFF34F8FBFF36F8F00BF00BFF4
:10123000FEE7206808B9012000E0002050B900BF97
:10124000502080F31188BFF34F8FBFF36F8F00BF23
:1012500000BFFEE70F49606809680840C0B1206818
:10126000B0B90C49606809688843606000F0C8F84C
:101270000949606809680844074908602046FFF783
:10128000F5FD06480068401C0449086000F036FB84
:1012900070BD000070000020600000206C00002085
:1012A00000204FF0E02108618861064800684FF493
:1012B0007A71B0FBF1F0401E4FF0E0214861072049
:1012C000086170471400002070B504460025D4B1B1
:1012D0001248006808B9012000E0002050B900BFA2
:1012E000502080F31188BFF34F8FBFF36F8F00BF83
:1012F00000BFFEE700F084F800212046FFF7E2FB84
:1013000000F0FCFA05463DB94FF0805004490860F2
:10131000BFF34F8FBFF36F8F70BD000050000020F0
:1013200004ED00E070B504460E4614B904480568A3
:1013300000E02546FFF71AFFEE64FFF741FF70BD9E
:101340001800002010B586B000200590049003AA74
:1013500004A905A8FFF7C8FE0022DDE90410134622
:10136000CDE9002102901EA11F48039A00F0B4F9B4
:101370001E4908600846006808B1012400E0002406
:10138000012C1AD100BF502080F31188BFF34F8F7A
:10139000BFF36F8F00BF4FF0FF3015490860012089
:1013A0001449086000201449086014490968C86C91
:1013B000FFF742FA00F07CF810E0601C08B1012051
:1013C00000E0002050B900BF502080F31188BFF327
:1013D0004F8FBFF36F8F00BF00BFFEE706B010BD99
:1013E00049444C4500000000250D00084C00002039
:1013F00048000020340000202C00002018000020AD
:1014000002480068401C01490860704750000020F5
:1014100010B52248006818B10120214908603BE05E
:1014200000201F4908601F490968C86CFFF728FAA7
:101430001D480068B0FA80F0C0F11F0101EB810087
:101440001A4A52F8200008B1012000E0002050B9EB
:1014500000BF502080F31188BFF34F8FBFF36F8F11
:1014600000BF00BFFEE701EB8102104B03EB8200DF
:1014700042685268426000F108024368934202D118
:101480004268526842604268D268064B1A60194648
:101490000968C86CFFF7D0F910BD000050000020AB
:1014A0003C0000201800002030000020D80200205E
:1014B0001CB55C4800685C49884201D0012000E00E
:1014C000002050B900BF502080F31188BFF34F8F28
:1014D000BFF36F8F00BF00BFFEE75248006852495C
:1014E000491E884201D0012000E0002050B900BF11
:1014F000502080F31188BFF34F8FBFF36F8F00BF71
:1015000000BFFEE74949084600780190FF200A46DF
:1015100010700846007800909DF8000000F0F00080
:101520009DF80020904201D1012000E0002050B938
:1015300000BF502080F31188BFF34F8FBFF36F8F30
:1015400000BF00BFFEE79DF8000000F05000384AE1
:1015500010700720374A106009E036480068401EC6
:10156000344A10609DF800004006000E00909DF87F
:10157000000000F080008028EFD02E480068C0F105
:101580000700042801D1012000E0002050B900BF6D
:10159000502080F31188BFF34F8FBFF36F8F00BFD0
:1015A00000BFFEE723480068C0F10700042801D10E
:1015B000012000E0002050B900BF502080F31188C6
:1015C000BFF34F8FBFF36F8F00BF00BFFEE7194817
:1015D00000680002174A10601046008800F4E060BE
:1015E0001060124A019810700E482030006840F4D4
:1015F00070000C49203108600846006840F07040D7
:101600000860FFF74DFE00200B490860FEF736FE2C
:101610000A48006840F0404008490860FEF71AFE9A
:1016200000201CBD00ED00E071C20F4100E400E0AD
:10163000780000207C0000207400002034EF00E0DF
:1016400010B500BF502080F31188BFF34F8FBFF358
:101650006F8F00BF00F0AEF818B14FF08050044912
:10166000086000BF002080F3118800BF10BD00009B
:1016700004ED00E02DE9FF4F85B08046894617460E
:10168000DDE912ABB800FFF75FFC064656B1582003
:10169000FFF75AFC04460CB1266304E03046FFF71E
:1016A000ADFD00E000248CB1002084F85500CDE9A8
:1016B00000ABCDE902403A4649464046089BFFF759
:1016C00045FB2046FFF74AFA012501E04FF0FF35C0
:1016D000284609B0BDE8F08F2DE9F04F85B00746E8
:1016E000884691469A46DDE90EB6109C0EB101205F
:1016F00000E0002050B900BF502080F31188BFF3F4
:101700004F8FBFF36F8F00BF00BFFEE70CB101200A
:1017100000E0002050B900BF502080F31188BFF3D3
:101720004F8FBFF36F8F00BF00BFFEE758200390BD
:101730000398582801D1012000E0002050B900BFD3
:10174000502080F31188BFF34F8FBFF36F8F00BF1E
:1017500000BFFEE700BFB4B1AEB125462C462E63F4
:10176000022085F85500002004A953464A46CDE9D9
:1017700000B1CDE9025041463846FFF7E7FA284666
:10178000FFF7ECF901E000200490049805B0BDE8F3
:10179000F08F00000549096809B9012005E00449F6
:1017A000096809B9022000E00020704734000020D9
:1017B000500000202DE9F0414FF000084448006837
:1017C00000287CD143480068451C4248056015BB91
:1017D00041480068006808B9012000E0002050B9C5
:1017E00000BF502080F31188BFF34F8FBFF36F8F7E
:1017F00000BF00BFFEE73848076838480068364930
:1018000008603648076036480068401C3449086064
:10181000FFF760FB00BF3348006885423CD300BF40
:101820002D480068006808B9012000E0002020B1C0
:101830004FF0FF302B4908602DE027480068C06852
:10184000C4686668B54202D22648066023E0201DBF
:10185000FFF736FCA06A18B104F11800FFF730FC5E
:1018600094F82C10012088401F49096808431E493C
:101870000860E16A01EB81011C4A02EB8100211D35
:10188000FFF768FC1A49E06A0968C96A8842C7D349
:101890004FF00108C4E700BF15480068C06A00EBBC
:1018A0008000124951F82000012801D94FF00108A9
:1018B0001048006808B14FF0010805E0FFE70E4846
:1018C0000068401C0C4908604046BDE8F0810000FB
:1018D000500000202C0000201C00002020000020D0
:1018E000400000204800002030000020D8020020E6
:1018F000180000203C0000203800002070B50024B3
:1019000000263648006850B900BF502080F3118887
:10191000BFF34F8FBFF36F8F00BF00BFFEE7FFF72E
:1019200025FC2E480068401E2C49086008460068C7
:1019300000284FD12A48006800284BD024E02948CD
:10194000C068C46804F11800FFF7BAFB201DFFF758
:10195000B7FB94F82C1001208840234909680843FC
:1019600021490860E16A01EB8101204A02EB810014
:10197000211DFFF7EFFB1E49E06A0968C96A88422A
:1019800002D301201B4908601648006808B90120ED
:1019900000E000200028D2D00CB1FFF79BFA1648D7
:1019A000056865B100BFFFF705FF10B101201149BF
:1019B00008606D1E002DF6D100200F4908600D480B
:1019C000006838B1012630070C490860BFF34F8F1B
:1019D000BFF36F8FFFF7F4FB304670BD500000205F
:1019E000280000208C03002030000020D8020020B6
:1019F000180000203C0000203800002004ED00E02A
:101A00004FF04070E1EE100A704700001028405877
:101A10007088A0B8D01A0008650600080000000011
:101A20000000000080000000000000000000000036
:101A3000AC1A000881060008FDFF0000000000004D
:101A4000800000000000000000000000B81A00083C
:101A500093060008FDFF0000000000008000000069
:101A60000000000000000000C41A0008A5060008DD
:101A7000FDFF0000000000008000000000000000EA
:101A800000000000A01A00086F060008FDFF00001B
:101A900000000000800000000000000000000000C6
:101AA0006D795461736B3031000000006D795461C1
:101AB000736B3032000000006D795461736B30330A
:101AC000000000006D795461736B30340000000039
:101AD00064656661756C745461736B00FC1A000870
:101AE0000000002080000000D00100087C1B0008DE
:101AF00080000020A8450000EC0100080000000064
:101B000000000000000000000000000000000000D5
:101B10000024F400000000000000000000000000AD
:101B200000000000000000000000000000000000B5
:101B300000000000000000000000000000000000A5
:101B40000000000000000000000000000000000095
:101B50000000000000000000000000000000000085
:101B60000000000000000000000000000000000075
:0C1B7000AAAAAAAA0000000000000000C1
:040000050800019559
:00000001FF
