:020000040800F2
:1000000018460020F50200084904000819040008F9
:100010004504000813040008190600080000000049
:100020000000000000000000000000003502000891
:10003000170400080000000091020008970400085F
:100040000F0300080F0300080F0300080F03000848
:100050000F0300080F0300080F0300080F03000838
:100060000F0300080F0300080F0300080F03000828
:100070000F0300080F0300080F0300080F03000818
:100080000F0300080F0300080F0300080000000022
:100090000000000000000000000000000F03000846
:1000A0000F0300080F0300080F0300080F030008E8
:1000B0000F0300080F0300080F0300080F030008D8
:1000C0000F0300080F0300080F0300080F030008C8
:1000D0000F0300080F0300080F03000800000000D2
:1000E0000F0300080F0300080F03000800000000C2
:1000F0000000000000000000000000000F030008E6
:10010000000000000F0300080F0300080F030008A1
:1001100000000000000000000000000000000000DF
:100120000F0300080F0300080F0300080F03000867
:100130000F030008000000000000000000000000A5
:100140000000000000000000000000000F03000895
:100150000F0300080F0300080F0300080F03000837
:100160000F0300080F03000800000000000000005B
:10017000000000000000000000000000000000007F
:10018000000000000F030008000000000000000055
:100190000F03000800F002F800F03CF80AA090E815
:1001A000000C82448344AAF10107DA4501D100F032
:1001B00031F8AFF2090EBAE80F0013F0010F18BFC3
:1001C000FB1A43F001031847E41400000415000073
:1001D000103A24BF78C878C1FAD8520724BF30C873
:1001E00030C144BF04680C60704700000023002445
:1001F00000250026103A28BF78C1FBD8520728BF37
:1002000030C148BF0B6070471FB501F031FA1FBD08
:1002100010B510BD00F0C3F81146FFF7F5FF00F070
:1002200019FA00F0E1F803B4FFF7F2FF03BC00F0A5
:10023000E9F800002C4B19680868B0E8F04F80F32B
:100240000988BFF36F8F4FF0000080F3118870476B
:100250000000000008480068006880F308884FF03C
:10026000000080F3148862B661B6BFF34F8FBFF30E
:100270006F8F00DF00BF00BF08ED00E0DFF80C006B
:10028000016841F470010160704700BF88ED00E033
:10029000EFF30980BFF36F8F134B1A681EF0100F36
:1002A00008BF20ED108A20E9F04F106009B44FF02C
:1002B000500080F31188BFF34F8FBFF36F8F00F0B2
:1002C000FDFE4FF0000080F3118809BC1968086832
:1002D000B0E8F04F1EF0100F08BFB0EC108A80F3AA
:1002E0000988BFF36F8F704708000020EFF3058087
:1002F000704700000948804709480047FEE7FEE7CD
:10030000FEE7FEE7FEE7FEE7FEE7FEE7FEE7FEE7C5
:1003100004480549054A064B7047000005060008D9
:1003200095010008184000201846002018420020BF
:100330001842002010B5203AC0F00B80B1E81850E8
:10034000203AA0E81850B1E81850A0E81850BFF4BF
:10035000F5AF5FEA027C24BFB1E81850A0E818505E
:1003600044BF18C918C0BDE810405FEA827C24BFB2
:1003700051F8043B40F8043B08BF7047D20728BF40
:1003800031F8023B48BF11F8012B28BF20F8023B8F
:1003900048BF00F8012B704770477047704775469B
:1003A00000F02CF8AE4605006946534620F00700E1
:1003B000854618B020B5FFF7ABFFBDE820404FF0F1
:1003C00000064FF000074FF000084FF0000B21F03F
:1003D0000701AC46ACE8C009ACE8C009ACE8C0090C
:1003E000ACE8C0098D46704710B50446AFF30080F5
:1003F0002046BDE81040FFF716BF000000487047D8
:10040000B43F002001491820ABBEFEE726000200E1
:10041000704700BFFEE7704700BFFEE74FF47A71F8
:10042000B0FBF1F2521E4FF0E0235A6100229A61B4
:1004300005221A6100BF704701490860704700003B
:100440000400002000BFFEE700BFFEE7F0B5034652
:100450000C4603F00701C1F10700042801D904206C
:1004600001E0C1F107000646081D072801D200205F
:1004700000E0C81E05460120B040401E2040A840B4
:100480000127AF407F1E17403843F0BD00BF012059
:1004900000F045F9FBE710B500F0B4FF012801D0EA
:1004A00000F006FF10BD000070B502205049096839
:1004B00021F0070101434E4A116000BF00BF00BF99
:1004C0004B48006800F007000228F8D18003494932
:1004D000096821F440410143464A116000BF1020E1
:1004E0004549096821F0F80141EAC001424A11601A
:1004F00000BF00BF1046006840F0010011460860D0
:1005000000BF00BF00BF3C480068C0F340000028A7
:10051000F8D0002010214FF4A8720B0340EA010428
:1005200044EA8214344D2D1D2D68344E35402C4341
:10053000314D2D1D2C602C46246824F440341C437E
:100540002C6000BF00BF281F006840F08070291F8A
:10055000086000BF00BF00BF27480068C0F34060CC
:100560000028F8D000BF00BF22484068C0F38030A8
:100570000028F8D0002020490831096821F0F00156
:1005800001431D4A0832116000BF901411460968EA
:1005900021F4E0510143116000BF002011460968B9
:1005A00021F460410143116000BF02201146096837
:1005B00021F003010143116000BF00BF00BF0E48DE
:1005C0000830006800F00C000828F7D10C48FFF74D
:1005D00025FF0B48FFF730FF002007498C310968E1
:1005E00021F080710143044A8C32116000BF70BD5C
:1005F000003C024000700040003802400080BFFF15
:1006000000BD01050348006840F47000014908601E
:100610007047000088ED00E000BFFEE70248006878
:10062000C0F30220704700000CED00E010B5002878
:1006300004DB0A07130E054A135406E00A07140EDA
:10064000034A00F00F031B1FD45410BD00E400E068
:1006500018ED00E088B04FF4804028490968014354
:10066000264A1160114609680140009100BF00BF91
:100670008003111F09680143121F116011460968A8
:100680000140009100BF00BF032002461C4B1968C7
:100690004FF6FF0319401B4B0B4343EA0221184B53
:1006A000196000BFFFF7BAFF054600220F21FFF7D0
:1006B000CDFE044621466FF00100FFF7B7FFFFF7BC
:1006C000ADFF054600220F21FFF7C0FE044621467C
:1006D0004FF0FF30FFF7AAFFFFF7E6FE1C220A49A2
:1006E00001A8FFF727FE002101A800F029F807491B
:1006F000086000F020F800BFFEE700004438024028
:100700000CED00E00000FA0584160008000000204F
:1007100001460020842901D0CA1C1044704770B5DE
:10072000044625460DB1294600E00121084600F0A7
:1007300037FC002070BD10B500F060FC002010BD3B
:100740007FB504460D46606998B1A06988B1B4F9D7
:100750000800FFF7DDFF0646D4E90510CDE900618A
:1007600002902B462269D4E9001000F0EDFD0390C1
:1007700013E0B4F90800FFF7CBFF064603A8CDE964
:100780000060238A9AB22B46D4E9001000F0AAFD3B
:10079000012802D0002004B070BD0398FBE70000E0
:1007A0002DE9F04105460E461C4807681C480068C4
:1007B000001D00F0F1FA50B91948006890F82C10AB
:1007C0000120884017490968814316480160681C68
:1007D00038B936B112480168091D134800F026FBEC
:1007E0001AE07C190E4800684460BC4207D20C48ED
:1007F0000168091D0D48006800F0FEFA0CE0084889
:100800000168091D0A48006800F0F6FA0948006806
:10081000844201D207480460BDE8F0811C0000203A
:100820000800002020000020A0030020100000206D
:100830000C0000203800002010B5044600F002FB38
:1008400023480068401C224908602248006840B9DB
:10085000204804600846006801280DD100F03EF9E8
:100860000AE01D48006838B91A480068C06AE16AA1
:10087000884201D81748046018480068401C17498E
:10088000086094F82C100120884015490968084335
:1008900013490860E16A01EB8101124A02EB810011
:1008A000211D00F0C3FA00F0F7FA0B48006868B1A8
:1008B00008480068C06AE16A884207D24FF0805059
:1008C00009490860BFF34F8FBFF36F8F10BD000061
:1008D0001800002008000020240000203400002020
:1008E00020000020C402002004ED00E010B516E056
:1008F00000F0A8FA0C48C068C468201D00F04CFA4B
:100900000A480068401E0949086009480068401EFE
:100910000749086000F0C0FA204600F00BF80448D0
:1009200000680028E4D110BD8C03002018000020CE
:100930001400002010B5044694F8510030B9206B23
:1009400000F0C8FA204600F0C5FA1AE094F8510009
:10095000012803D1204600F0BDFA12E094F85100BE
:10096000022801D1012000E0002050B900BF502032
:1009700080F31188BFF34F8FBFF36F8F00BF00BFAD
:10098000FEE710BD30B54FF47053174800F0070470
:100990002CB1C01D20F00700134C041B1B1B02468A
:1009A000124C22600024114D6C60D018083820F0E1
:1009B00007000F4C206000240D4D2D686C600C4D1D
:1009C0002D682C601146441A4C60094C24680C6058
:1009D000084D4C682C60084D4C682C604FF000446A
:1009E000064D2C6030BD0000B40300204400002000
:1009F0004C00002054000020500000206000002027
:100A000000BFFFF773FF064800680128F9D94FF0CF
:100A1000805004490860BFF34F8FBFF36F8FF0E73A
:100A2000C402002004ED00E02DE9FF5F81460E4680
:100A30009246DDE90E7B109CAAF10100216B01EBCF
:100A4000800828F0070808F0070008B9012000E036
:100A5000002050B900BF502080F31188BFF34F8FA2
:100A6000BFF36F8F00BF00BFFEE786B1002507E030
:100A7000715D04F134004155705D00B902E06D1CF8
:100A8000102DF5D300BF00214320015502E00020C6
:100A900084F83400072F00D30627E762676400203C
:100AA000A064201D00F0A5F904F1180000F0A1F9E0
:100AB0002461C7F10700A06164620020E06484F84B
:100AC000500049464046039A00F050F92060BBF1BF
:100AD000000F01D0CBF80040BDE8FF9F10B5002407
:100AE00007E004EB84010F4A02EB810000F074F987
:100AF000641C072CF5D30C4800F06EF90B4800F08D
:100B00006BF90B4800F068F90A4800F065F90A48EB
:100B100000F062F90448094908600448084908607F
:100B200010BD0000C4020020500300206403002018
:100B3000780300208C030020A00300200C0000207C
:100B40001000002010B50146164800E00068036858
:100B50008B42FBD30246436813448B4204D1436863
:100B60004C682344436001460A464B6813440468BA
:100B7000A34211D10C4C03682468A34208D04B68EF
:100B80000468646823444B6003681B680B6005E0DD
:100B9000054B1B680B6001E003680B60884200D0C6
:100BA000016010BD440000204C0000200A49096883
:100BB000096809B9012100E0002121B14FF0FF319E
:100BC000064A116006E004490968C968C868034A12
:100BD00041681160704700000C00002038000020C0
:100BE0000E480068401C08B9012000E0002050B900
:100BF00000BF502080F31188BFF34F8FBFF36F8F7A
:100C000000BF00BFFEE700BF502080F31188BFF394
:100C10004F8FBFF36F8F00BF00BFFEE7640000205F
:100C20002DE9F04104464FF0000800F03FFA494832
:100C3000006808B9FFF7A6FE474800682040002872
:100C400070D1D4B1083404F00700B0B104F007004B
:100C5000C0F10800044404F0070008B9012000E0D6
:100C6000002050B900BF502080F31188BFF34F8F90
:100C7000BFF36F8F00BF00BFFEE7002C52D0374894
:100C8000006884424ED8364E3046056801E02E4654
:100C90002D686868A04202D228680028F7D12D4844
:100CA000006885423ED0306800F10808286830604E
:100CB0006868001B102819D92F1907F0070008B918
:100CC000012000E0002050B900BF502080F31188BF
:100CD000BFF34F8FBFF36F8F00BF00BFFEE76868A1
:100CE000001B78606C603846FFF72CFF1B49686872
:100CF0000968081A1949086008460068194909680E
:100D0000884203D21548006816490860124968688D
:100D10000968084368600020286013480068401C88
:100D20001149086000F022FC08F0070008B9012012
:100D300000E0002050B900BF502080F31188BFF3BD
:100D40004F8FBFF36F8F00BF00BFFEE74046BDE887
:100D5000F08100004C0000206000002050000020C6
:100D6000440000205400002058000020001F4FF0D5
:100D700080730360001F21F001030360001F054B17
:100D8000036014380260001F6FF002030360203814
:100D900070470000E10B000801460A69D1E9013003
:100DA0009860D1E9010358605068884201D1886891
:100DB0005060002008611068401E10601068704785
:100DC000034B0360034B0B608023136070470000EC
:100DD00070000020C400002000F1080141604FF0C5
:100DE000FF31816000F10801C160016100210160F3
:100DF000704700210161704710B502460B685C1C0A
:100E00000CB9106907E002F1080000E0406844688E
:100E100024689C42FAD944684C604C68A1608860A0
:100E200041600A611468641C146010BD42684A6025
:100E300093688B60936859609160086103685B1CDC
:100E40000360704700BF502080F31188BFF34F8FBD
:100E5000BFF36F8F00BF0E480068401C0C4908604C
:100E600008460068012812D10A480068C0B208B9D3
:100E7000012000E0002050B900BF502080F311880D
:100E8000BFF34F8FBFF36F8F00BF00BFFEE7704708
:100E90006400002004ED00E00D48006850B900BF78
:100EA000502080F31188BFF34F8FBFF36F8F00BFC7
:100EB00000BFFEE706480068401E05490860084676
:100EC000006820B9002080F3118800BF00BF704780
:100ED0006400002070B506463546002E44D0083D1B
:100EE0002C46224960680968084008B1012000E0EA
:100EF000002050B900BF502080F31188BFF34F8FFE
:100F0000BFF36F8F00BF00BFFEE7206808B9012064
:100F100000E0002050B900BF502080F31188BFF3DB
:100F20004F8FBFF36F8F00BF00BFFEE70F496068B0
:100F300009680840C0B12068B0B90C496068096808
:100F40008843606000F0B2F80949606809680844A5
:100F5000074908602046FFF7F5FD06480068401C79
:100F60000449086000F002FB70BD00006000002032
:100F7000500000205C00002000204FF0E0210861BC
:100F80008861064800684FF47A71B0FBF1F0401EAA
:100F90004FF0E021486107200861704704000020FD
:100FA00070B504460025D4B11248006808B9012084
:100FB00000E0002050B900BF502080F31188BFF33B
:100FC0004F8FBFF36F8F00BF00BFFEE700F06EF8DA
:100FD00000212046FFF7E4FB00F0C8FA05463DB9C2
:100FE0004FF0805004490860BFF34F8FBFF36F8FFD
:100FF00070BD00004000002004ED00E010B586B098
:1010000000200590049003AA04A905A8FFF7D8FEC4
:101010000022DDE904101346CDE9002102901CA155
:101020001D48039A00F090F91C49086008460068C2
:1010300008B1012400E00024012C15D100BF50208C
:1010400080F31188BFF34F8FBFF36F8F00BF4FF056
:10105000FF3013490860012012490860002012493E
:10106000086000F071F810E0601C08B1012000E099
:10107000002050B900BF502080F31188BFF34F8F7C
:10108000BFF36F8F00BF00BFFEE706B010BD0000CA
:1010900049444C4500000000010A00083C000020C3
:1010A00038000020240000201C00002002480068B6
:1010B000401C014908607047400000201D4800683E
:1010C00018B101201C49086032E000201A4908606C
:1010D0001A480068B0FA80F0C0F11F0101EB8100EE
:1010E000174A52F8200008B1012000E0002050B952
:1010F00000BF502080F31188BFF34F8FBFF36F8F75
:1011000000BF00BFFEE701EB81020D4B03EB820045
:1011100042685268426000F108024368934202D17B
:101120004268526842604268D268064B1A6000BF4B
:1011300070470000400000202C000020200000200C
:10114000C4020020080000201CB552480068524923
:10115000884201D0012000E0002050B900BF50209B
:1011600080F31188BFF34F8FBFF36F8F00BF00BFB5
:10117000FEE7484800684849491E884201D00120DE
:1011800000E0002050B900BF502080F31188BFF369
:101190004F8FBFF36F8F00BF00BFFEE73F49084688
:1011A00000780190FF200A461070084600780090F1
:1011B0009DF8000000F0F0009DF80020904201D161
:1011C000012000E0002050B900BF502080F31188BA
:1011D000BFF34F8FBFF36F8F00BF00BFFEE79DF8D7
:1011E000000000F050002E4A107007202D4A1060B9
:1011F00009E02C480068401E2A4A10609DF8000053
:101200004006000E00909DF8000000F0800080284D
:10121000EFD024480068C0F10700042801D1012064
:1012200000E0002050B900BF502080F31188BFF3C8
:101230004F8FBFF36F8F00BF00BFFEE719480068F4
:101240000002184A10601046008800F4E060106048
:10125000124A019810700F482030006840F4700066
:101260000C49203108600846006840F07040086072
:10127000FFF782FE00200C490860FEF7FFFF0B48D5
:10128000006840F0404009490860FEF7E3FF002095
:101290001CBD000000ED00E071C20F4100E400E061
:1012A000680000206C0000206400002034EF00E0A3
:1012B00010B500BF502080F31188BFF34F8FBFF3EC
:1012C0006F8F00BF00F0AEF818B14FF080500449A6
:1012D000086000BF002080F3118800BF10BD00002F
:1012E00004ED00E02DE9FF4F85B0804689461746A2
:1012F000DDE912ABB800FFF793FC064656B1542067
:10130000FFF78EFC04460CB1266304E03046FFF77D
:10131000E1FD00E000248CB1002084F85100CDE90B
:1013200000ABCDE902403A4649464046089BFFF7EC
:101330007BFB2046FFF780FA012501E04FF0FF35E7
:10134000284609B0BDE8F08F2DE9F04F85B007467B
:10135000884691469A46DDE90EB6109C0EB10120F2
:1013600000E0002050B900BF502080F31188BFF387
:101370004F8FBFF36F8F00BF00BFFEE70CB101209E
:1013800000E0002050B900BF502080F31188BFF367
:101390004F8FBFF36F8F00BF00BFFEE75420039055
:1013A0000398542801D1012000E0002050B900BF6B
:1013B000502080F31188BFF34F8FBFF36F8F00BFB2
:1013C00000BFFEE700BFB4B1AEB125462C462E6388
:1013D000022085F85100002004A953464A46CDE971
:1013E00000B1CDE9025041463846FFF71DFB2846C3
:1013F000FFF722FA01E000200490049805B0BDE850
:10140000F08F00000549096809B9012005E0044989
:10141000096809B9022000E000207047240000207C
:10142000400000202DE9F0414FF0000844480068DA
:1014300000287CD143480068451C4248056015BB24
:1014400041480068006808B9012000E0002050B958
:1014500000BF502080F31188BFF34F8FBFF36F8F11
:1014600000BF00BFFEE738480768384800683649C3
:1014700008603648076036480068401C34490860F8
:10148000FFF794FB00BF3348006885423CD300BFA0
:101490002D480068006808B9012000E0002020B154
:1014A0004FF0FF302B4908602DE027480068C068E6
:1014B000C4686668B54202D22648066023E0201D53
:1014C000FFF76AFCA06A18B104F11800FFF764FC8A
:1014D00094F82C10012088401F49096808431E49D0
:1014E0000860E16A01EB81011C4A02EB8100211DC9
:1014F000FFF79CFC1A49E06A0968C96A8842C7D3A9
:101500004FF00108C4E700BF15480068C06A00EB4F
:101510008000124951F82000012801D94FF001083C
:101520001048006808B14FF0010805E0FFE70E48D9
:101530000068401C0C4908604046BDE8F08100008E
:10154000400000201C0000200C00002010000020A3
:10155000300000203800002020000020C4020020BD
:10156000080000202C0000202800002070B5002476
:1015700000263648006850B900BF502080F311881B
:10158000BFF34F8FBFF36F8F00BF00BFFEE7FFF7C2
:1015900059FC2E480068401E2C4908600846006827
:1015A00000284FD12A48006800284BD024E0294861
:1015B000C068C46804F11800FFF7EEFB201DFFF7B8
:1015C000EBFB94F82C10012088402349096808435C
:1015D00021490860E16A01EB8101204A02EB8100A8
:1015E000211DFFF723FC1E49E06A0968C96A884289
:1015F00002D301201B4908601648006808B9012081
:1016000000E000200028D2D00CB1FFF7CFFA164836
:10161000056865B100BFFFF705FF10B10120114952
:1016200008606D1E002DF6D100200F4908600D489E
:10163000006838B1012630070C490860BFF34F8FAE
:10164000BFF36F8FFFF728FC304670BD40000020CD
:10165000180000207803002020000020C402002091
:10166000080000202C0000202800002004ED00E0ED
:101670004FF04070E1EE100A70470000102840580B
:101680007088A0B8A01600088D04000800000000B3
:1016900000000000800000000000000000000000CA
:1016A00064656661756C745461736B00CC160008D8
:1016B0000000002070000000D00100083C17000866
:1016C00070000020A8450000EC01000800000000A8
:1016D0000024F400000000000000000000000000F2
:1016E00000000000000000000000000000000000FA
:1016F00000000000000000000000000000000000EA
:1017000000000000000000000000000000000000D9
:1017100000000000000000000000000000000000C9
:1017200000000000000000000000000000000000B9
:0C173000AAAAAAAA000000000000000005
:040000050800019559
:00000001FF
