:020000040800F2
:1000000030460020F5020008DD040008A1040008C5
:10001000D90400089B0400088D07000800000000B8
:100020000000000000000000000000003502000891
:100030009F0400080000000091020008E10500088C
:100040000F0300080F0300080F0300080F03000848
:100050000F0300080F0300080F0300080F03000838
:100060000F0300080F0300080F0300080F03000828
:100070000F0300080F0300080F0300080F03000818
:100080000F0300080F0300080F0300080000000022
:100090000000000000000000000000000F03000846
:1000A0000F0300080F0300080F0300080F030008E8
:1000B0000F0300080F0300080F0300080F030008D8
:1000C0000F0300080F0300080F0300080F030008C8
:1000D0000F0300080F0300080F03000800000000D2
:1000E0000F0300080F0300080F03000800000000C2
:1000F0000000000000000000000000000F030008E6
:10010000000000000F0300080F0300080F030008A1
:1001100000000000000000000000000000000000DF
:100120000F0300080F0300080F0300080F03000867
:100130000F030008000000000000000000000000A5
:100140000000000000000000000000000F03000895
:100150000F0300080F0300080F0300080F03000837
:100160000F0300080F03000800000000000000005B
:10017000000000000000000000000000000000007F
:10018000000000000F030008000000000000000055
:100190000F03000800F002F800F03CF80AA090E815
:1001A000000C82448344AAF10107DA4501D100F032
:1001B00031F8AFF2090EBAE80F0013F0010F18BFC3
:1001C000FB1A43F001031847D8200000F820000074
:1001D000103A24BF78C878C1FAD8520724BF30C873
:1001E00030C144BF04680C60704700000023002445
:1001F00000250026103A28BF78C1FBD8520728BF37
:1002000030C148BF0B6070471FB501F0D3FF1FBD61
:1002100010B510BD00F008F91146FFF7F5FF00F02A
:10022000D3FA00F026F903B4FFF7F2FF03BC00F0A5
:100230002DF900002C4B19680868B0E8F04F80F3E6
:100240000988BFF36F8F4FF0000080F3118870476B
:100250000000000008480068006880F308884FF03C
:10026000000080F3148862B661B6BFF34F8FBFF30E
:100270006F8F00DF00BF00BF08ED00E0DFF80C006B
:10028000016841F470010160704700BF88ED00E033
:10029000EFF30980BFF36F8F134B1A681EF0100F36
:1002A00008BF20ED108A20E9F04F106009B44FF02C
:1002B000500080F31188BFF34F8FBFF36F8F01F0B1
:1002C00019F94FF0000080F3118809BC196808681B
:1002D000B0E8F04F1EF0100F08BFB0EC108A80F3AA
:1002E0000988BFF36F8F70471C000020EFF3058073
:1002F000704700000948804709480047FEE7FEE7CD
:10030000FEE7FEE7FEE7FEE7FEE7FEE7FEE7FEE7C5
:1003100004480549054A064B70470000E9060008F5
:100320009501000830400020304600203042002077
:1003300030420020032A40F2308010F0030C00F01D
:10034000158011F8013BBCF1020F624498BF11F80F
:1003500001CB00F8013B38BF11F8013BA2F10402C8
:1003600098BF00F801CB38BF00F8013B11F0030340
:1003700000F02580083AC0F0088051F8043B083AA4
:1003800051F804CBA0E80810F5E7121D5CBF51F846
:10039000043B40F8043BAFF30080D20724BF11F8C0
:1003A000013B11F801CB48BF11F8012B24BF00F825
:1003B000013B00F801CB48BF00F8012B704710B596
:1003C000203AC0F00B80B1E81850203AA0E818504D
:1003D000B1E81850A0E81850BFF4F5AF5FEA027C0E
:1003E00024BFB1E81850A0E8185044BF18C918C07D
:1003F000BDE810405FEA827C24BF51F8043B40F81E
:10040000043B08BF7047D20728BF31F8023B48BF02
:1004100011F8012B28BF20F8023B48BF00F8012B40
:100420007047704770477047754600F02BF8AE462E
:1004300005006946534620F00700854618B020B5F0
:10044000FFF766FFBDE820404FF000064FF00007C1
:100450004FF000084FF0000B21F00701AC46ACE86C
:10046000C009ACE8C009ACE8C009ACE8C0098D46D9
:10047000704710B50446AFF300802046BDE8104039
:10048000FFF7D1BE00487047CC3F0020014918203B
:10049000ABBEFEE726000200704700BFFEE77047D4
:1004A00000BFFEE70A0482617047816170474FF424
:1004B0007A71B0FBF1F2521E4FF0E0235A61002234
:1004C0009A6105221A6100BF704700000149086067
:1004D000704700001800002000BFFEE700BFFEE7E5
:1004E000F0B503460C4603F00701C1F107000428EC
:1004F00001D9042001E0C1F107000646081D0728C4
:1005000001D2002000E0C81E05460120B040401E78
:100510002040A8400127AF407F1E17403843F0BD60
:1005200000BF012000F0FBF9FBE7000008B5012146
:10053000002000F069FF0120009000BF00230A2284
:1005400069460448006801F0F1F9012000F0E7F97C
:10055000F4E700001400002008B50221002000F09C
:1005600053FF0220009000BF00230A22694604487E
:10057000006801F0DBF9012000F0D1F9F4E7000098
:100580001400002008B50321002000F03DFF0A20E0
:10059000009000BF00230A2269460448006801F069
:1005A000C5F9012000F0BBF9F4E7000014000020B9
:1005B00008B50421002000F027FF00BF4FF0FF32F4
:1005C00069460648006801F085FA002001E000BF96
:1005D000401CB0F57A7FF1D2F9E70000140000204A
:1005E00010B501F001FC012801D001F09BF810BD0D
:1005F00010B500203849096821F007010143364A47
:10060000116000BF00BF00BF3348006800F0070062
:100610000028F8D14FF400403049096821F44041E6
:1006200001432E4A116000BF10202D49096821F0B6
:10063000F80141EAC0012A4A116000BF00BF10461C
:10064000006840F001001146086000BF00BF00BF15
:1006500023480068C0F340000028F8D0002020495B
:100660000831096821F0F00101431D4A0832116088
:1006700000BF00BF1146096821F4E0510143116039
:1006800000BF00BF1146096821F4604101431160B9
:1006900000BF00BF1146096821F00301014311604A
:1006A00000BF00BF00BF0E480830006800F00C001B
:1006B0000028F7D10B48FFF7FAFE0A48FFF706FFBC
:1006C000002007498C31096821F080710143044AF8
:1006D0008C32116000BF10BD003C02400070004031
:1006E000003802400024F4000348006840F4700021
:1006F000014908607047000088ED00E010B504462D
:10070000012C06D0022C09D0032C0CD0042C14D1BF
:100710000EE001210A48FFF7C8FE0EE0022108485A
:10072000FFF7C3FE09E004210548FFF7BEFE04E021
:1007300008210348FFF7B9FE00BF00BF10BD00004D
:100740000000024010B50446012C06D0022C09D04E
:10075000032C0CD0042C14D10EE001210A48FFF721
:10076000A1FE0EE002210848FFF79CFE09E00421EB
:100770000548FFF797FE04E008210348FFF792FEC3
:1007800000BF00BF10BD00000000024000BFFEE738
:1007900002480068C0F30220704700000CED00E042
:1007A00010B5002804DB0A07130E054A135406E0AF
:1007B0000A07140E034A00F00F031B1FD45410BD88
:1007C00000E400E018ED00E0A8B04FF48040464996
:1007D00009680143444A11601146096801400091CB
:1007E00000BF00BF8003111F09680143121F116081
:1007F000114609680140009100BF00BF0320024676
:100800003A4B19684FF6FF031940394B0B4343EA43
:100810000221364B196000BFFFF7BAFF05460022E0
:100820000F21FFF75DFE044621466FF00100FFF740
:10083000B7FFFFF7ADFF054600220F21FFF750FE7F
:10084000044621464FF0FF30FFF7AAFFFFF7D0FE26
:10085000284B0FCBCDE92623CDE92401002124A884
:1008600000F06EF8244908601C22224910311DA8AE
:10087000FFF7A5FD00211DA800F076F81F490860CC
:100880001C221C492C3116A8FFF799FD002116A83F
:1008900000F06AF81A4908601C22164948310FA86E
:1008A000FFF78DFD00210FA800F05EF815490860E4
:1008B0001C221049643108A8FFF781FD002108A817
:1008C00000F052F8104908601C220A49803101A842
:1008D000FFF775FD002101A800F046F80B490860FC
:1008E00000F029F800BFFEE7443802400CED00E0BC
:1008F0000000FA05C82100081400002000000020B4
:1009000004000020080000200C000020100000203F
:1009100001460020842901D0CA1C1044704770B5DC
:10092000044625460DB1294600E00121084600F0A5
:100930000FFD002070BD10B500F076FD002010BD49
:10094000F8B504460D46A06840B1E06830B100201B
:10095000009094E80F0000F02CFFF8BD0022D4E9CD
:10096000000100F0F9FEF8E77FB504460D46606926
:1009700098B1A06988B1B4F90800FFF7C9FF06462D
:10098000D4E90510CDE9006102902B462269D4E933
:10099000001001F0CBF9039013E0B4F90800FFF761
:1009A000B7FF064603A8CDE90060238A9AB22B461A
:1009B000D4E9001001F088F9012802D0002004B029
:1009C00070BD0398FBE700002DE9F04105460E4697
:1009D0001C4807681C480068001D00F0B5FB50B9B2
:1009E0001948006890F82C100120884017490968C0
:1009F000814316480160681C38B936B11248016855
:100A0000091D134800F0EAFB1AE07C190E48006843
:100A10004460BC4207D20C480168091D0D480068BB
:100A200000F0C2FB0CE008480168091D0A48006894
:100A300000F0BAFB09480068844201D2074804600C
:100A4000BDE8F081300000201C00002034000020B0
:100A5000B803002024000020200000204C000020CB
:100A600010B5044600F0C6FB23480068401C22492C
:100A700008602248006840B92048046008460068C1
:100A800001280DD100F0A6F90AE01D48006838B928
:100A90001A480068C06AE16A884201D817480460B1
:100AA00018480068401C1749086094F82C10012071
:100AB000884015490968084313490860E16A01EB59
:100AC0008101124A02EB8100211D00F087FB00F03A
:100AD000BBFB0B48006868B108480068C06AE16A5F
:100AE000884207D24FF0805009490860BFF34F8F0A
:100AF000BFF36F8F10BD00002C0000201C000020F1
:100B0000380000204800002034000020DC020020D3
:100B100004ED00E010B516E000F06CFB0C48C06876
:100B2000C468201D00F010FB0A480068401E0949F7
:100B3000086009480068401E0749086000F084FB0F
:100B4000204600F05FF8044800680028E4D110BD9A
:100B5000A40300202C0000202800002070B50446CB
:100B60000D46206C70B1216CE0680144E160D4E96D
:100B70000210884201D32168E1602846226CE168B6
:100B8000FFF7D8FB70BD2DE9F04104460F4615462E
:100B90004FF00008A66B206C48B9206800282CD1C3
:100BA000A06801F0D5F980460020A06025E07DB95D
:100BB0003946226C6068FFF7BDFB216C6068084411
:100BC0006060D4E90101884217D32068606014E0B6
:100BD0003946226CE068FFF7ADFB216CE068411AF2
:100BE000E1602168E068884203D2216CA068411A64
:100BF000E160022D01D106B1761E701CA063404653
:100C0000BDE8F08110B5044694F8550030B9206B6A
:100C100000F038FB204600F035FB1AE094F8550050
:100C2000012803D1204600F02DFB12E094F8550076
:100C3000022801D1012000E0002050B900BF50205F
:100C400080F31188BFF34F8FBFF36F8F00BF00BFDA
:100C5000FEE710BD30B54FF47053174800F007049D
:100C60002CB1C01D20F00700134C041B1B1B0246B7
:100C7000124C22600024114D6C60D018083820F00E
:100C800007000F4C206000240D4D2D686C600C4D4A
:100C90002D682C601146441A4C60094C24680C6085
:100CA000084D4C682C60084D4C682C604FF0004497
:100CB000064D2C6030BD0000CC0300205800002001
:100CC0006000002068000020640000207400002004
:100CD00000BFFFF71FFF064800680128F9D94FF051
:100CE000805004490860BFF34F8FBFF36F8FF0E768
:100CF000DC02002004ED00E02DE9F04106460D463F
:100D000017469846069C0DB9246000E02760E6630C
:100D100025640121204600F0BDFDBDE8F0812DE9EC
:100D2000FF5F81460E469246DDE90E7B109CAAF1DC
:100D30000100216B01EB800828F0070808F007008C
:100D400008B9012000E0002050B900BF502080F316
:100D50001188BFF34F8FBFF36F8F00BF00BFFEE757
:100D600086B1002507E0715D04F134004155705DE6
:100D700000B902E06D1C102DF5D300BF0021432007
:100D8000015502E0002084F83400072F00D3062725
:100D9000E76267640020A064201D00F002FA04F1FD
:100DA000180000F0FEF92461C7F10700A061646239
:100DB0000020E064206584F8540049464046039AC8
:100DC00000F0ACF92060BBF1000F01D0CBF800407F
:100DD000BDE8FF9F10B5002407E004EB84010F4A33
:100DE00002EB810000F0D0F9641C072CF5D30C480D
:100DF00000F0CAF90B4800F0C7F90B4800F0C4F93D
:100E00000A4800F0C1F90A4800F0BEF9044809494F
:100E1000086004480849086010BD0000DC0200209A
:100E2000680300207C03002090030020A40300201E
:100E3000B8030020200000202400002010B5014647
:100E4000164800E0006803688B42FBD30246436803
:100E500013448B4204D143684C68234443600146E9
:100E60000A464B6813440468A34211D10C4C036832
:100E70002468A34208D04B680468646823444B602C
:100E800003681B680B6005E0054B1B680B6001E005
:100E900003680B60884200D0016010BD580000203C
:100EA0006000002070B5054600F0A4F9A86B08B9F1
:100EB000012400E0002400F0C7F9204670BD70B5A1
:100EC000054600F097F9A86BE96B884201D101242F
:100ED00000E0002400F0B8F9204670BD0A49096816
:100EE000096809B9012100E0002121B14FF0FF316B
:100EF000064A116006E004490968C968C868034ADF
:100F00004168116070470000200000204C00002064
:100F10000E480068401C08B9012000E0002050B9CC
:100F200000BF502080F31188BFF34F8FBFF36F8F46
:100F300000BF00BFFEE700BF502080F31188BFF361
:100F40004F8FBFF36F8F00BF00BFFEE77800002018
:100F500070B5044600F04EF994F9455010E0606A0F
:100F600008B9012000E0002038B904F1240001F0A4
:100F700053F818B100F026FA00E003E0681E45B20D
:100F8000002DECDC00BFFF2084F8450000F05CF988
:100F900000F030F994F9445010E0206908B90120BC
:100FA00000E0002048B904F1100001F035F808B164
:100FB00000F008FA681E45B200E001E0002DECDC0C
:100FC00000BFFF2084F8440000F03EF970BD00002F
:100FD0002DE9F04104464FF0000800F083FA49483B
:100FE000006808B9FFF736FE47480068204000282F
:100FF00070D1D4B1083404F00700B0B104F0070098
:10100000C0F10800044404F0070008B9012000E022
:10101000002050B900BF502080F31188BFF34F8FDC
:10102000BFF36F8F00BF00BFFEE7002C52D03748E0
:10103000006884424ED8364E3046056801E02E46A0
:101040002D686868A04202D228680028F7D12D4890
:10105000006885423ED0306800F10808286830609A
:101060006868001B102819D92F1907F0070008B964
:10107000012000E0002050B900BF502080F311880B
:10108000BFF34F8FBFF36F8F00BF00BFFEE76868ED
:10109000001B78606C603846FFF7D0FE1B4968681B
:1010A0000968081A1949086008460068194909685A
:1010B000884203D2154800681649086012496868DA
:1010C0000968084368600020286013480068401CD5
:1010D0001149086000F0ECFF08F0070008B9012092
:1010E00000E0002050B900BF502080F31188BFF30A
:1010F0004F8FBFF36F8F00BF00BFFEE74046BDE8D4
:10110000F0810000600000207400002064000020D6
:1011100058000020680000206C000020001F4FF0E5
:1011200080730360001F21F001030360001F054B63
:10113000036014380260001F6FF002030360203860
:1011400070470000110F000801460A69D1E901301B
:101150009860D1E9010358605068884201D18868DD
:101160005060002008611068401E106010687047D1
:10117000034B0360034B0B60802313607047000038
:1011800084000020DC00002000F1080141604FF0E5
:10119000FF31816000F10801C1600161002101603F
:1011A000704700210161704710B502460B685C1C56
:1011B0000CB9106907E002F1080000E040684468DB
:1011C00024689C42FAD944684C604C68A1608860ED
:1011D00041600A611468641C146010BD42684A6072
:1011E00093688B60936859609160086103685B1C29
:1011F0000360704700BF502080F31188BFF34F8F0A
:10120000BFF36F8F00BF0E480068401C0C49086098
:1012100008460068012812D10A480068C0B208B91F
:10122000012000E0002050B900BF502080F3118859
:10123000BFF34F8FBFF36F8F00BF00BFFEE7704754
:101240007800002004ED00E00D48006850B900BFB0
:10125000502080F31188BFF34F8FBFF36F8F00BF13
:1012600000BFFEE706480068401E054908600846C2
:10127000006820B9002080F3118800BF00BF7047CC
:101280007800002070B506463546002E44D0083D53
:101290002C46224960680968084008B1012000E036
:1012A000002050B900BF502080F31188BFF34F8F4A
:1012B000BFF36F8F00BF00BFFEE7206808B90120B1
:1012C00000E0002050B900BF502080F31188BFF328
:1012D0004F8FBFF36F8F00BF00BFFEE70F496068FD
:1012E00009680840C0B12068B0B90C496068096855
:1012F0008843606000F0F6F80949606809680844AE
:10130000074908602046FFF799FD06480068401C21
:101310000449086000F0CCFE70BD0000740000209D
:10132000640000207000002000204FF0E0210861E0
:101330008861064800684FF47A71B0FBF1F0401EF6
:101340004FF0E02148610720086170471800002035
:1013500070B504460025D4B11248006808B90120D0
:1013600000E0002050B900BF502080F31188BFF387
:101370004F8FBFF36F8F00BF00BFFEE700F0B2F8E2
:1013800000212046FFF720FB00F092FE05463DB904
:101390004FF0805004490860BFF34F8FBFF36F8F49
:1013A00070BD00005400002004ED00E0034909680E
:1013B0000160034909684160704700004400002053
:1013C00030000020012001490860704740000020E3
:1013D00070B504460D4654B900BF502080F3118803
:1013E000BFF34F8FBFF36F8F00BF00BFFEE705480D
:1013F000016818312046FFF7D7FE01212846FFF784
:10140000E3FA70BD1C00002070B504460E4614B906
:101410000448056800E02546FFF7ECFEEE64FFF7A0
:1014200013FF70BD1C00002010B586B00020059091
:10143000049003AA04A905A8FFF79AFE0022DDE99B
:1014400004101346CDE9002102901EA11F48039A03
:1014500000F06CFC1E4908600846006808B10124D1
:1014600000E00024012C1AD100BF502080F3118825
:10147000BFF34F8FBFF36F8F00BF4FF0FF301549A1
:1014800008600120144908600020144908601449CC
:101490000968C86CFFF732F900F07CF810E0601CB6
:1014A00008B1012000E0002050B900BF502080F3B7
:1014B0001188BFF34F8FBFF36F8F00BF00BFFEE7F0
:1014C00006B010BD49444C4500000000D10C000896
:1014D000500000204C000020380000203000002088
:1014E0001C00002002480068401C01490860704749
:1014F0005400002010B52248006818B1012021498D
:1015000008603BE000201F4908601F490968C86C5B
:10151000FFF718F91D480068B0FA80F0C0F11F010C
:1015200001EB81001A4A52F8200008B1012000E0C6
:10153000002050B900BF502080F31188BFF34F8FB7
:10154000BFF36F8F00BF00BFFEE701EB8102104BBE
:1015500003EB820042685268426000F1080243686F
:10156000934202D14268526842604268D268064B98
:101570001A6019460968C86CFFF7C0F810BD000072
:1015800054000020400000201C00002034000020F7
:10159000DC0200201CB55C4800685C49884201D030
:1015A000012000E0002050B900BF502080F31188D6
:1015B000BFF34F8FBFF36F8F00BF00BFFEE75248EE
:1015C00000685249491E884201D0012000E00020F5
:1015D00050B900BF502080F31188BFF34F8FBFF385
:1015E0006F8F00BF00BFFEE74949084600780190B1
:1015F000FF200A4610700846007800909DF8000011
:1016000000F0F0009DF80020904201D1012000E0A0
:10161000002050B900BF502080F31188BFF34F8FD6
:10162000BFF36F8F00BF00BFFEE79DF8000000F022
:101630005000384A10700720374A106009E03648D9
:101640000068401E344A10609DF800004006000EFD
:1016500000909DF8000000F080008028EFD02E4818
:101660000068C0F10700042801D1012000E000203B
:1016700050B900BF502080F31188BFF34F8FBFF3E4
:101680006F8F00BF00BFFEE723480068C0F107006E
:10169000042801D1012000E0002050B900BF5020F3
:1016A00080F31188BFF34F8FBFF36F8F00BF00BF70
:1016B000FEE7194800680002174A106010460088CB
:1016C00000F4E0601060124A019810700E4820305B
:1016D000006840F470000C4920310860084600683A
:1016E00040F070400860FFF71FFE00200B490860C3
:1016F000FEF7C4FD0A48006840F040400849086011
:10170000FEF7A8FD00201CBD00ED00E071C20F41F6
:1017100000E400E07C000020800000207800002031
:1017200034EF00E010B500BF502080F31188BFF304
:101730004F8FBFF36F8F00BF00F066FB18B14FF003
:1017400080500449086000BF002080F3118800BF6A
:1017500010BD000004ED00E02DE9F84305460E46FB
:1017600017460DB1012000E0002050B900BF502005
:1017700080F31188BFF34F8FBFF36F8F00BF00BF9F
:10178000FEE705FB06F808F14800FFF721FC0446D8
:1017900064B1A14609F14809002084F846003B469F
:1017A0004A46314628460094FFF7A6FA2046BDE88F
:1017B000F8832DE9F84380460E4617461D46DDF8AE
:1017C0002090B8F1000F01D0012000E0002050B9B6
:1017D00000BF502080F31188BFF34F8FBFF36F8F8E
:1017E00000BF00BFFEE70DB1012000E0002050B9AE
:1017F00000BF502080F31188BFF34F8FBFF36F8F6E
:1018000000BF00BFFEE707B10EB1012000E00020DD
:1018100050B900BF502080F31188BFF34F8FBFF342
:101820006F8F00BF00BFFEE707B90EB9012000E0CF
:10183000002050B900BF502080F31188BFF34F8FB4
:10184000BFF36F8F00BF00BFFEE7482000900098F5
:10185000482801D1012000E0002050B900BF5020ED
:1018600080F31188BFF34F8FBFF36F8F00BF00BFAE
:10187000FEE700BF2C464CB1012084F846004B46E1
:101880003A46314640460094FFF736FA2046BDE816
:10189000F883000070B505460E462C4654B900BFCB
:1018A000502080F31188BFF34F8FBFF36F8F00BFBD
:1018B00000BFFEE7FFF79EFCD4E90F12206801FB92
:1018C0000200A0600020A06320686060E06B401E02
:1018D000226C216800FB0211E160FF2084F84400C3
:1018E00084F845009EB9206908B9012000E0002075
:1018F000A8B904F1100000F08FFB80B14FF08050C8
:1019000009490860BFF34F8FBFF36F8F07E004F101
:101910001000FFF739FC04F12400FFF735FCFFF756
:1019200093FC012070BD000004ED00E02DE9FF43B1
:1019300083B0064688461D464FF00009344654B928
:1019400000BF502080F31188BFF34F8FBFF36F8F1C
:1019500000BF00BFFEE7B8F1000F01D1206C08B94D
:10196000012000E0002050B900BF502080F3118812
:10197000BFF34F8FBFF36F8F00BF00BFFEE7022D95
:1019800002D1E06B012801D1012000E0002050B914
:1019900000BF502080F31188BFF34F8FBFF36F8FCC
:1019A00000BF00BFFEE700F01FFA08B9059808B9AC
:1019B000012000E0002050B900BF502080F31188C2
:1019C000BFF34F8FBFF36F8F00BF00BFFEE700BFB5
:1019D000FFF710FCA06BE16B884201D3022D28D1E8
:1019E0002A4641462046FFF7CEF80746606A08B906
:1019F000012000E0002068B904F1240000F00CFB95
:101A000088B14FF0805032490860BFF34F8FBFF369
:101A10006F8F08E03FB14FF080502D490860BFF351
:101A20004F8FBFF36F8FFFF70FFC012007B0BDE8AA
:101A3000F083059818B9FFF707FC0020F6E7B9F125
:101A4000000F04D101A8FFF7B1FC4FF00109FFF727
:101A5000FBFBFFF747FDFFF7CDFB94F94400401C6B
:101A600010B9002084F8440094F94500401C10B9D6
:101A7000002084F84500FFF7E7FB05A901A800F066
:101A8000DDF8F0B92046FFF71AFAA0B104F1100012
:101A90000599FFF79DFC2046FFF75AFA00F008FB76
:101AA000002895D14FF0805009490860BFF34F8F4F
:101AB000BFF36F8F8CE72046FFF74AFA00F0F8FA81
:101AC00086E72046FFF744FA00F0F2FA0020ADE77F
:101AD00004ED00E02DE9F74183B005460E464FF0D6
:101AE00000082C4654B900BF502080F31188BFF382
:101AF0004F8FBFF36F8F00BF00BFFEE70EB9206CA2
:101B000008B9012000E0002050B900BF502080F348
:101B10001188BFF34F8FBFF36F8F00BF00BFFEE789
:101B200000F062F908B9059808B9012000E000202A
:101B300050B900BF502080F31188BFF34F8FBFF31F
:101B40006F8F00BF00BFFEE700BFFFF753FBA76B1F
:101B5000F7B131462046FFF701F8781EA0632069EF
:101B600008B9012000E0002060B904F1100000F085
:101B700053FA38B14FF080502F490860BFF34F8FB0
:101B8000BFF36F8FFFF760FB012006B0BDE8F08167
:101B9000059818B9FFF758FB0020F6E7B8F1000FD9
:101BA00004D101A8FFF702FC4FF00108FFF74CFB3E
:101BB000FFF798FCFFF71EFB94F94400401C10B996
:101BC000002084F8440094F94500401C10B900201E
:101BD00084F84500FFF738FB05A901A800F02EF8AE
:101BE000F0B92046FFF75EF9A0B104F12400059991
:101BF000FFF7EEFB2046FFF7ABF900F059FA00289B
:101C0000A3D14FF080500C490860BFF34F8FBFF352
:101C10006F8F9AE72046FFF79BF900F049FA94E7A7
:101C20002046FFF795F900F043FA2046FFF73AF90E
:101C300000288AD00020A8E704ED00E070B5054632
:101C40000C4655B900BF502080F31188BFF34F8F69
:101C5000BFF36F8F00BF00BFFEE754B900BF502035
:101C600080F31188BFF34F8FBFF36F8F00BF00BFAA
:101C7000FEE7FFF7BFFA124802686868131A206887
:101C8000401C08B9002617E00E49286809688842F8
:101C900004D06868904201D801260DE0206898427F
:101CA00007D92068C01A20602846FFF77FFB00266E
:101CB00002E0002020600126FFF7C6FA304670BD22
:101CC00030000020440000202DE9FF4F85B0804601
:101CD00089461746DDE912ABB800FFF779F90646E9
:101CE00056B15820FFF774F904460CB1266304E09E
:101CF0003046FFF7C7FA00E000248CB1002084F8DA
:101D00005500CDE900ABCDE902403A464946404690
:101D1000089BFFF704F82046FEF7A2FE012501E02C
:101D20004FF0FF35284609B0BDE8F08F2DE9F04FA0
:101D300085B00746884691469A46DDE90EB6109C66
:101D40000EB1012000E0002050B900BF502080F308
:101D50001188BFF34F8FBFF36F8F00BF00BFFEE747
:101D60000CB1012000E0002050B900BF502080F3EA
:101D70001188BFF34F8FBFF36F8F00BF00BFFEE727
:101D8000582003900398582801D1012000E000203A
:101D900050B900BF502080F31188BFF34F8FBFF3BD
:101DA0006F8F00BF00BFFEE700BFB4B1AEB12546E4
:101DB0002C462E63022085F85500002004A95346C6
:101DC0004A46CDE900B1CDE9025041463846FEF71A
:101DD000A6FF2846FEF744FE01E000200490049888
:101DE00005B0BDE8F08F00000549096809B9012078
:101DF00005E00449096809B9022000E000207047A5
:101E000038000020540000202DE9F0414FF0000878
:101E10004448006800287CD143480068451C42487B
:101E2000056015BB41480068006808B9012000E062
:101E3000002050B900BF502080F31188BFF34F8FAE
:101E4000BFF36F8F00BF00BFFEE738480768384810
:101E50000068364908603648076036480068401C0C
:101E600034490860FFF73AF800BF334800688542FC
:101E70003CD300BF2D480068006808B9012000E08D
:101E8000002020B14FF0FF302B4908602DE027489B
:101E90000068C068C4686668B54202D22648066019
:101EA00023E0201DFFF750F9A06A18B104F11800D3
:101EB000FFF74AF994F82C10012088401F4909685F
:101EC00008431E490860E16A01EB81011C4A02EBEC
:101ED0008100211DFFF782F91A49E06A0968C96A81
:101EE0008842C7D34FF00108C4E700BF1548006817
:101EF000C06A00EB8000124951F82000012801D986
:101F00004FF001081048006808B14FF0010805E0E3
:101F1000FFE70E480068401C0C4908604046BDE8D9
:101F2000F08100005400002030000020200000203C
:101F300024000020440000204C0000203400002039
:101F4000DC0200201C000020400000203C0000209B
:101F500070B505462C460026002D55D02B4800684C
:101F6000844201D1012000E0002050B900BF502080
:101F700080F31188BFF34F8FBFF36F8F00BF00BF97
:101F8000FEE7A06C50B900BF502080F31188BFF36A
:101F90004F8FBFF36F8F00BF00BFFEE7A06C401EE6
:101FA000A064616CE06A88422ED0A06C60BB201DEA
:101FB000FFF7CAF878B9E06A00EB8000144951F8DD
:101FC000200040B994F82C1001208840114909687C
:101FD000814310480160606CE062E06AC0F1070074
:101FE000A06194F82C10012088400A490968084330
:101FF00008490860E16A01EB8101054A02EB8100B2
:10200000211DFFF7EBF80126304670BD1C000020B3
:10201000DC0200203400002070B50646F068C46879
:1020200054B900BF502080F31188BFF34F8FBFF326
:102030006F8F00BF00BFFEE704F11800FFF784F8C0
:1020400015480068A8B9201DFFF77EF894F82C10F9
:102050000120884011490968084310490860E16A75
:1020600001EB81010E4A02EB8100211DFFF7B6F85A
:1020700004E004F118010B48FFF7B0F80A49E06AE0
:102080000968C96A884204D9012501200749086006
:1020900000E00025284670BD5400002034000020D8
:1020A000DC020020900300201C00002040000020E3
:1020B00070B5002400263648006850B900BF502093
:1020C00080F31188BFF34F8FBFF36F8F00BF00BF46
:1020D000FEE7FFF78FF82E480068401E2C49086085
:1020E0000846006800284FD12A48006800284BD0D5
:1020F00024E02948C068C46804F11800FFF724F8F8
:10210000201DFFF721F894F82C1001208840234966
:102110000968084321490860E16A01EB8101204A0E
:1021200002EB8100211DFFF759F81E49E06A09689A
:10213000C96A884202D301201B490860164800681A
:1021400008B9012000E000200028D2D00CB1FEF731
:10215000C5FE1648056865B100BFFFF755FE10B112
:102160000120114908606D1E002DF6D100200F4995
:1021700008600D48006838B1012630070C49086036
:10218000BFF34F8FBFF36F8FFFF75EF8304670BD20
:10219000540000202C000020900300203400002078
:1021A000DC0200201C000020400000203C00002039
:1021B00004ED00E04FF04070E1EE100A70470000BF
:1021C000102840587088A0B80400000002000000E9
:1021D0000000000000000000942200082105000813
:1021E000000000000000000080000000000000006F
:1021F00000000000642200082D0500080000000017
:10220000000000008000000000000000000000004E
:1022100070220008590500080000000000000000BE
:102220008000000000000000000000007C22000888
:10223000850500080000000000000000800000008C
:10224000000000000000000088220008B10500081E
:1022500001000000000000008000000000000000FD
:10226000000000006D795461736B30310000000094
:102270006D795461736B3032000000006D795461E8
:10228000736B3033000000006D795461736B303430
:102290000000000064656661756C745461736B00C6
:1022A000C02200080000002084000000D0010008C7
:1022B0004423000884000020AC450000EC01000825
:1022C000000000000000000000000000000000000E
:1022D00000000000000000000024F40000000000E6
:1022E00000000000000000000000000000000000EE
:1022F00000000000000000000000000000000000DE
:1023000000000000000000000000000000000000CD
:1023100000000000000000000000000000000000BD
:1023200000000000000000000000000000000000AD
:102330000000000000000000AAAAAAAA00000000F5
:042340000000000099
:040000050800019559
:00000001FF
